{
  "contractName": "RoyalMint",
  "abi": [
    {
      "inputs": [],
      "stateMutability": "nonpayable",
      "type": "constructor"
    },
    {
      "inputs": [
        {
          "internalType": "address",
          "name": "",
          "type": "address"
        }
      ],
      "name": "operators",
      "outputs": [
        {
          "internalType": "uint256",
          "name": "",
          "type": "uint256"
        }
      ],
      "stateMutability": "view",
      "type": "function",
      "constant": true
    },
    {
      "inputs": [],
      "name": "owner",
      "outputs": [
        {
          "internalType": "address",
          "name": "",
          "type": "address"
        }
      ],
      "stateMutability": "view",
      "type": "function",
      "constant": true
    },
    {
      "stateMutability": "payable",
      "type": "receive",
      "payable": true
    },
    {
      "inputs": [
        {
          "internalType": "address",
          "name": "token",
          "type": "address"
        },
        {
          "internalType": "uint256",
          "name": "amount",
          "type": "uint256"
        }
      ],
      "name": "withdraw",
      "outputs": [],
      "stateMutability": "nonpayable",
      "type": "function"
    },
    {
      "inputs": [
        {
          "internalType": "address",
          "name": "_newOwner",
          "type": "address"
        }
      ],
      "name": "updateOwner",
      "outputs": [],
      "stateMutability": "nonpayable",
      "type": "function"
    },
    {
      "inputs": [],
      "name": "confirmOwner",
      "outputs": [],
      "stateMutability": "nonpayable",
      "type": "function"
    },
    {
      "inputs": [
        {
          "internalType": "address[]",
          "name": "_operators",
          "type": "address[]"
        }
      ],
      "name": "addOperators",
      "outputs": [],
      "stateMutability": "nonpayable",
      "type": "function"
    },
    {
      "inputs": [
        {
          "internalType": "address[]",
          "name": "_operators",
          "type": "address[]"
        }
      ],
      "name": "removeOperators",
      "outputs": [],
      "stateMutability": "nonpayable",
      "type": "function"
    },
    {
      "inputs": [
        {
          "internalType": "uint256",
          "name": "amountIn",
          "type": "uint256"
        },
        {
          "internalType": "uint256",
          "name": "amountOutMin",
          "type": "uint256"
        },
        {
          "internalType": "address",
          "name": "token",
          "type": "address"
        },
        {
          "internalType": "uint256[]",
          "name": "swapFees",
          "type": "uint256[]"
        },
        {
          "internalType": "address[]",
          "name": "pairs",
          "type": "address[]"
        }
      ],
      "name": "royalMint",
      "outputs": [],
      "stateMutability": "nonpayable",
      "type": "function"
    }
  ],
  "bytecode": "0x608060405233600160006101000a81548173ffffffffffffffffffffffffffffffffffffffff021916908373ffffffffffffffffffffffffffffffffffffffff16021790555034801561005157600080fd5b5060016000803373ffffffffffffffffffffffffffffffffffffffff1673ffffffffffffffffffffffffffffffffffffffff16815260200190815260200160002081905550611f67806100a56000396000f3fe60806040526004361061007f5760003560e01c8063bd9b6d861161004e578063bd9b6d8614610247578063c54ddded1461025e578063d365a377146103eb578063f3fef3a3146104b057610086565b806313e7c9d81461008b578063880cdc31146100f05780638da5cb5b14610141578063a07aea1c1461018257610086565b3661008657005b600080fd5b34801561009757600080fd5b506100da600480360360208110156100ae57600080fd5b81019080803573ffffffffffffffffffffffffffffffffffffffff16906020019092919050505061050b565b6040518082815260200191505060405180910390f35b3480156100fc57600080fd5b5061013f6004803603602081101561011357600080fd5b81019080803573ffffffffffffffffffffffffffffffffffffffff169060200190929190505050610523565b005b34801561014d57600080fd5b5061015661062a565b604051808273ffffffffffffffffffffffffffffffffffffffff16815260200191505060405180910390f35b34801561018e57600080fd5b50610245600480360360208110156101a557600080fd5b81019080803590602001906401000000008111156101c257600080fd5b8201836020820111156101d457600080fd5b803590602001918460208302840111640100000000831117156101f657600080fd5b919080806020026020016040519081016040528093929190818152602001838360200280828437600081840152601f19601f820116905080830192505050505050509192919290505050610650565b005b34801561025357600080fd5b5061025c610787565b005b34801561026a57600080fd5b506103e9600480360360a081101561028157600080fd5b810190808035906020019092919080359060200190929190803573ffffffffffffffffffffffffffffffffffffffff169060200190929190803590602001906401000000008111156102d257600080fd5b8201836020820111156102e457600080fd5b8035906020019184602083028401116401000000008311171561030657600080fd5b919080806020026020016040519081016040528093929190818152602001838360200280828437600081840152601f19601f8201169050808301925050505050505091929192908035906020019064010000000081111561036657600080fd5b82018360208201111561037857600080fd5b8035906020019184602083028401116401000000008311171561039a57600080fd5b919080806020026020016040519081016040528093929190818152602001838360200280828437600081840152601f19601f820116905080830192505050505050509192919290505050610915565b005b3480156103f757600080fd5b506104ae6004803603602081101561040e57600080fd5b810190808035906020019064010000000081111561042b57600080fd5b82018360208201111561043d57600080fd5b8035906020019184602083028401116401000000008311171561045f57600080fd5b919080806020026020016040519081016040528093929190818152602001838360200280828437600081840152601f19601f82011690508083019250505050505050919291929050505061112f565b005b3480156104bc57600080fd5b50610509600480360360408110156104d357600080fd5b81019080803573ffffffffffffffffffffffffffffffffffffffff169060200190929190803590602001909291905050506112d5565b005b60006020528060005260406000206000915090505481565b600160009054906101000a900473ffffffffffffffffffffffffffffffffffffffff1673ffffffffffffffffffffffffffffffffffffffff163373ffffffffffffffffffffffffffffffffffffffff16146105e6576040517f08c379a00000000000000000000000000000000000000000000000000000000081526004018080602001828103825260158152602001807f4f776e6572206e6f7420617574686f72697a65642e000000000000000000000081525060200191505060405180910390fd5b80600260006101000a81548173ffffffffffffffffffffffffffffffffffffffff021916908373ffffffffffffffffffffffffffffffffffffffff16021790555050565b600160009054906101000a900473ffffffffffffffffffffffffffffffffffffffff1681565b600160009054906101000a900473ffffffffffffffffffffffffffffffffffffffff1673ffffffffffffffffffffffffffffffffffffffff163373ffffffffffffffffffffffffffffffffffffffff1614610713576040517f08c379a00000000000000000000000000000000000000000000000000000000081526004018080602001828103825260158152602001807f4f776e6572206e6f7420617574686f72697a65642e000000000000000000000081525060200191505060405180910390fd5b60005b815181101561078357600160008084848151811061073057fe5b602002602001015173ffffffffffffffffffffffffffffffffffffffff1673ffffffffffffffffffffffffffffffffffffffff168152602001908152602001600020819055508080600101915050610716565b5050565b600260009054906101000a900473ffffffffffffffffffffffffffffffffffffffff1673ffffffffffffffffffffffffffffffffffffffff163373ffffffffffffffffffffffffffffffffffffffff161461084a576040517f08c379a00000000000000000000000000000000000000000000000000000000081526004018080602001828103825260188152602001807f4e65774f776e6572206e6f7420617574686f72697a65642e000000000000000081525060200191505060405180910390fd5b600260009054906101000a900473ffffffffffffffffffffffffffffffffffffffff16600160006101000a81548173ffffffffffffffffffffffffffffffffffffffff021916908373ffffffffffffffffffffffffffffffffffffffff1602179055506001600080600260009054906101000a900473ffffffffffffffffffffffffffffffffffffffff1673ffffffffffffffffffffffffffffffffffffffff1673ffffffffffffffffffffffffffffffffffffffff16815260200190815260200160002081905550565b60005a905060008060003373ffffffffffffffffffffffffffffffffffffffff1673ffffffffffffffffffffffffffffffffffffffff1681526020019081526020016000205414156109cf576040517f08c379a00000000000000000000000000000000000000000000000000000000081526004018080602001828103825260188152602001807f4f70657261746f72206e6f7420617574686f72697a65642e000000000000000081525060200191505060405180910390fd5b6000806109dc8685611519565b91509150600088905060005b6001845103811015610a7057610a6182848381518110610a0457fe5b6020026020010151600081518110610a1857fe5b6020026020010151858481518110610a2c57fe5b6020026020010151600181518110610a4057fe5b60200260200101518a8581518110610a5457fe5b6020026020010151611955565b915080806001019150506109e8565b5087811015610ae7576040517f08c379a00000000000000000000000000000000000000000000000000000000081526004018080602001828103825260028152602001807f233100000000000000000000000000000000000000000000000000000000000081525060200191505060405180910390fd5b610b068786600081518110610af857fe5b60200260200101518b611ac2565b60008773ffffffffffffffffffffffffffffffffffffffff166370a08231306040518263ffffffff1660e01b8152600401808273ffffffffffffffffffffffffffffffffffffffff16815260200191505060206040518083038186803b158015610b6f57600080fd5b505afa158015610b83573d6000803e3d6000fd5b505050506040513d6020811015610b9957600080fd5b8101908080519060200190929190505050905060005b6001855103811015610f51576000610bf0868381518110610bcc57fe5b6020026020010151876001850181518110610be357fe5b6020026020010151611ca4565b5090506000888381518110610c0157fe5b602002602001015190506000610cfb878581518110610c1c57fe5b6020026020010151600081518110610c3057fe5b6020026020010151898681518110610c4457fe5b602002602001015173ffffffffffffffffffffffffffffffffffffffff166370a08231856040518263ffffffff1660e01b8152600401808273ffffffffffffffffffffffffffffffffffffffff16815260200191505060206040518083038186803b158015610cb257600080fd5b505afa158015610cc6573d6000803e3d6000fd5b505050506040513d6020811015610cdc57600080fd5b8101908080519060200190929190505050611d9690919063ffffffff16565b90506000610d6c82898781518110610d0f57fe5b6020026020010151600081518110610d2357fe5b60200260200101518a8881518110610d3757fe5b6020026020010151600181518110610d4b57fe5b60200260200101518f8981518110610d5f57fe5b6020026020010151611955565b90506000808573ffffffffffffffffffffffffffffffffffffffff168b8881518110610d9457fe5b602002602001015173ffffffffffffffffffffffffffffffffffffffff1614610dbf57826000610dc3565b6000835b91509150600060028c51038810610dda5730610df2565b8d6001890181518110610de957fe5b60200260200101515b90508573ffffffffffffffffffffffffffffffffffffffff1663022c0d9f848484600067ffffffffffffffff81118015610e2b57600080fd5b506040519080825280601f01601f191660200182016040528015610e5e5781602001600182028036833780820191505090505b506040518563ffffffff1660e01b8152600401808581526020018481526020018373ffffffffffffffffffffffffffffffffffffffff16815260200180602001828103825283818151815260200191508051906020019080838360005b83811015610ed6578082015181840152602081019050610ebb565b50505050905090810190601f168015610f035780820380516001836020036101000a031916815260200191505b5095505050505050600060405180830381600087803b158015610f2557600080fd5b505af1158015610f39573d6000803e3d6000fd5b50505050505050505050508080600101915050610baf565b5088611007828a73ffffffffffffffffffffffffffffffffffffffff166370a08231306040518263ffffffff1660e01b8152600401808273ffffffffffffffffffffffffffffffffffffffff16815260200191505060206040518083038186803b158015610fbe57600080fd5b505afa158015610fd2573d6000803e3d6000fd5b505050506040513d6020811015610fe857600080fd5b8101908080519060200190929190505050611d9690919063ffffffff16565b101561107b576040517f08c379a000000000000000000000000000000000000000000000000000000000815260040180806020018281038252601a8152602001807f494e53554646494349454e545f4f55545055545f414d4f554e5400000000000081525060200191505060405180910390fd5b5050505060008036905060100261520801905060005a838301039050600061a3db61374a8301816110a857fe5b0490506d4946c0e9f43f4dee607b0ef1fa1c73ffffffffffffffffffffffffffffffffffffffff1663d8ccd0f3826040518263ffffffff1660e01b815260040180828152602001915050600060405180830381600087803b15801561110c57600080fd5b505af1158015611120573d6000803e3d6000fd5b50505050505050505050505050565b600160009054906101000a900473ffffffffffffffffffffffffffffffffffffffff1673ffffffffffffffffffffffffffffffffffffffff163373ffffffffffffffffffffffffffffffffffffffff16146111f2576040517f08c379a00000000000000000000000000000000000000000000000000000000081526004018080602001828103825260158152602001807f4f776e6572206e6f7420617574686f72697a65642e000000000000000000000081525060200191505060405180910390fd5b60005b81518110156112d157600160009054906101000a900473ffffffffffffffffffffffffffffffffffffffff1673ffffffffffffffffffffffffffffffffffffffff1682828151811061124357fe5b602002602001015173ffffffffffffffffffffffffffffffffffffffff16141561126c576112c4565b600080600084848151811061127d57fe5b602002602001015173ffffffffffffffffffffffffffffffffffffffff1673ffffffffffffffffffffffffffffffffffffffff168152602001908152602001600020819055505b80806001019150506111f5565b5050565b600160009054906101000a900473ffffffffffffffffffffffffffffffffffffffff1673ffffffffffffffffffffffffffffffffffffffff163373ffffffffffffffffffffffffffffffffffffffff1614611398576040517f08c379a00000000000000000000000000000000000000000000000000000000081526004018080602001828103825260158152602001807f4f776e6572206e6f7420617574686f72697a65642e000000000000000000000081525060200191505060405180910390fd5b6000811415611446578173ffffffffffffffffffffffffffffffffffffffff166370a08231306040518263ffffffff1660e01b8152600401808273ffffffffffffffffffffffffffffffffffffffff16815260200191505060206040518083038186803b15801561140857600080fd5b505afa15801561141c573d6000803e3d6000fd5b505050506040513d602081101561143257600080fd5b810190808051906020019092919050505090505b8173ffffffffffffffffffffffffffffffffffffffff1663a9059cbb600160009054906101000a900473ffffffffffffffffffffffffffffffffffffffff16836040518363ffffffff1660e01b8152600401808373ffffffffffffffffffffffffffffffffffffffff16815260200182815260200192505050602060405180830381600087803b1580156114d957600080fd5b505af11580156114ed573d6000803e3d6000fd5b505050506040513d602081101561150357600080fd5b8101908080519060200190929190505050505050565b606080600183510167ffffffffffffffff8111801561153757600080fd5b506040519080825280602002602001820160405280156115665781602001602082028036833780820191505090505b509150825167ffffffffffffffff8111801561158157600080fd5b506040519080825280602002602001820160405280156115b557816020015b60608152602001906001900390816115a05790505b50905083826000815181106115c657fe5b602002602001019073ffffffffffffffffffffffffffffffffffffffff16908173ffffffffffffffffffffffffffffffffffffffff168152505060005b835181101561194d57600084828151811061161a57fe5b6020026020010151905060008173ffffffffffffffffffffffffffffffffffffffff16630dfe16816040518163ffffffff1660e01b815260040160206040518083038186803b15801561166c57600080fd5b505afa158015611680573d6000803e3d6000fd5b505050506040513d602081101561169657600080fd5b8101908080519060200190929190505050905060008273ffffffffffffffffffffffffffffffffffffffff1663d21220a76040518163ffffffff1660e01b815260040160206040518083038186803b1580156116f157600080fd5b505afa158015611705573d6000803e3d6000fd5b505050506040513d602081101561171b57600080fd5b810190808051906020019092919050505090506000808473ffffffffffffffffffffffffffffffffffffffff16630902f1ac6040518163ffffffff1660e01b815260040160606040518083038186803b15801561177757600080fd5b505afa15801561178b573d6000803e3d6000fd5b505050506040513d60608110156117a157600080fd5b81019080805190602001909291908051906020019092919080519060200190929190505050506dffffffffffffffffffffffffffff1691506dffffffffffffffffffffffffffff169150600267ffffffffffffffff8111801561180357600080fd5b506040519080825280602002602001820160405280156118325781602001602082028036833780820191505090505b5087878151811061183f57fe5b602002602001018190525087868151811061185657fe5b602002602001015173ffffffffffffffffffffffffffffffffffffffff168473ffffffffffffffffffffffffffffffffffffffff16146118985783818361189c565b8282825b8a60018a01815181106118ab57fe5b602002602001018a8a815181106118be57fe5b60200260200101516000815181106118d257fe5b602002602001018b8b815181106118e557fe5b60200260200101516001815181106118f957fe5b6020026020010183815250838152508373ffffffffffffffffffffffffffffffffffffffff1673ffffffffffffffffffffffffffffffffffffffff1681525050505050505050508080600101915050611603565b509250929050565b60008085116119cc576040517f08c379a00000000000000000000000000000000000000000000000000000000081526004018080602001828103825260198152602001807f494e53554646494349454e545f494e5055545f414d4f554e540000000000000081525060200191505060405180910390fd5b6000841180156119dc5750600083115b611a4e576040517f08c379a00000000000000000000000000000000000000000000000000000000081526004018080602001828103825260168152602001807f494e53554646494349454e545f4c49515549444954590000000000000000000081525060200191505060405180910390fd5b6000611a67836127100387611e1990919063ffffffff16565b90506000611a7e8583611e1990919063ffffffff16565b90506000611aa983611a9b6127108a611e1990919063ffffffff16565b611eae90919063ffffffff16565b9050808281611ab457fe5b049350505050949350505050565b6000808473ffffffffffffffffffffffffffffffffffffffff1663a9059cbb8585604051602401808373ffffffffffffffffffffffffffffffffffffffff168152602001828152602001925050506040516020818303038152906040529060e01b6020820180517bffffffffffffffffffffffffffffffffffffffffffffffffffffffff83818316178352505050506040518082805190602001908083835b60208310611b845780518252602082019150602081019050602083039250611b61565b6001836020036101000a0380198251168184511680821785525050505050509050019150506000604051808303816000865af19150503d8060008114611be6576040519150601f19603f3d011682016040523d82523d6000602084013e611beb565b606091505b5091509150818015611c2b5750600081511480611c2a5750808060200190516020811015611c1857600080fd5b81019080805190602001909291905050505b5b611c9d576040517f08c379a000000000000000000000000000000000000000000000000000000000815260040180806020018281038252600f8152602001807f5452414e534645525f4641494c4544000000000000000000000000000000000081525060200191505060405180910390fd5b5050505050565b6000808273ffffffffffffffffffffffffffffffffffffffff168473ffffffffffffffffffffffffffffffffffffffff1610611ce1578284611ce4565b83835b8092508193505050600073ffffffffffffffffffffffffffffffffffffffff168273ffffffffffffffffffffffffffffffffffffffff161415611d8f576040517f08c379a000000000000000000000000000000000000000000000000000000000815260040180806020018281038252600c8152602001807f5a45524f5f41444452455353000000000000000000000000000000000000000081525060200191505060405180910390fd5b9250929050565b6000828284039150811115611e13576040517f08c379a00000000000000000000000000000000000000000000000000000000081526004018080602001828103825260158152602001807f64732d6d6174682d7375622d756e646572666c6f77000000000000000000000081525060200191505060405180910390fd5b92915050565b600080821480611e365750828283850292508281611e3357fe5b04145b611ea8576040517f08c379a00000000000000000000000000000000000000000000000000000000081526004018080602001828103825260148152602001807f64732d6d6174682d6d756c2d6f766572666c6f7700000000000000000000000081525060200191505060405180910390fd5b92915050565b6000828284019150811015611f2b576040517f08c379a00000000000000000000000000000000000000000000000000000000081526004018080602001828103825260148152602001807f64732d6d6174682d6164642d6f766572666c6f7700000000000000000000000081525060200191505060405180910390fd5b9291505056fea264697066735822122094a9b7d7990bc4d718155e258d8f8bb296de13dc79077a2e4d26d2f1dcd90a4a64736f6c63430007060033",
  "immutableReferences": {},
  "source": "//SPDX-License-Identifier: UNLICENSED\r\npragma solidity >=0.6.6;\r\n\r\nimport \"./interfaces/IPair.sol\";\r\nimport \"./interfaces/IERC20.sol\";\r\nimport \"./interfaces/CHI.sol\";\r\nimport \"./libraries/SafeMath.sol\";\r\n\r\ncontract RoyalMint {\r\n\r\n    using SafeMath for uint;\r\n\r\n    //拥有权限的操作人\r\n    mapping(address => uint) public operators;\r\n\r\n    //合约拥有人\r\n    address public owner = msg.sender;\r\n\r\n    //更新合约拥有人时的临时变量\r\n    address private newOwner;\r\n\r\n    CHI constant private chi = CHI(0x0000000000004946c0e9F43F4Dee607b0eF1fA1c);\r\n\r\n    constructor() {\r\n        operators[msg.sender] = 1;\r\n    }\r\n\r\n    //方法onlyBy\r\n    modifier onlyByOwner() {\r\n        require(\r\n            msg.sender == owner,\r\n            \"Owner not authorized.\"\r\n        );\r\n        _;\r\n    }\r\n\r\n    modifier onlyByNewOwner() {\r\n        require(\r\n            msg.sender == newOwner,\r\n            \"NewOwner not authorized.\"\r\n        );\r\n        _;\r\n    }\r\n\r\n    modifier onlyByOperator() {\r\n        require(\r\n            operators[msg.sender] != 0,\r\n            \"Operator not authorized.\"\r\n        );\r\n        _;\r\n    }\r\n\r\n    modifier onlyByOperatorAndDiscountGas {\r\n        uint256 gasStart = gasleft();\r\n        require(\r\n            operators[msg.sender] != 0,\r\n            \"Operator not authorized.\"\r\n        );\r\n        _;\r\n        uint256 initialGas = 21000 + 16 * msg.data.length;\r\n        uint256 gasSpent = initialGas + gasStart - gasleft();\r\n        uint256 freeUpValue = (gasSpent + 14154) / 41947;\r\n        chi.free(freeUpValue);\r\n    }\r\n\r\n    //支持转账操作\r\n    receive() external payable {}\r\n\r\n    //提币方法(只支持到owner用户)\r\n    function withdraw(address token, uint amount) public onlyByOwner() {\r\n        if (amount == 0) {\r\n            amount = IERC20(token).balanceOf(address(this));\r\n        }\r\n        IERC20(token).transfer(address(owner), amount);\r\n    }\r\n\r\n    //更新Owner（Owner调用）\r\n    function updateOwner(address _newOwner) public onlyByOwner() {\r\n        newOwner = _newOwner;\r\n    }\r\n\r\n    //确认更新Owner（新Owner调用） 防止地址输入错误 二次确认\r\n    function confirmOwner() public onlyByNewOwner() {\r\n        owner = newOwner;\r\n        operators[newOwner] = 1;\r\n    }\r\n\r\n    //新增操作员\r\n    function addOperators(address[] memory _operators) public onlyByOwner() {\r\n        for (uint i = 0; i < _operators.length; i++) {\r\n            operators[_operators[i]] = 1;\r\n        }\r\n    }\r\n\r\n    //删除操作员\r\n    function removeOperators(address[] memory _operators) public onlyByOwner() {\r\n        for (uint i = 0; i < _operators.length; i++) {\r\n            //owner不支持删除\r\n            if (_operators[i] == owner) {\r\n                continue;\r\n            }\r\n            operators[_operators[i]] = 0;\r\n        }\r\n    }\r\n\r\n    function royalMint(uint amountIn, uint amountOutMin, address token, uint[] memory swapFees, address[] memory pairs) external onlyByOperatorAndDiscountGas {\r\n        //前置预计算能买到的金额，如果不能盈利則直接報錯\r\n        (address[] memory tokens, uint[][] memory reserves) = getTokensAndReserves(token, pairs);\r\n        //通过reserves进行前置校验\r\n        uint tempAmount = amountIn;\r\n        for (uint i; i < tokens.length - 1; i++) {\r\n            tempAmount = getAmountOut(tempAmount, reserves[i][0], reserves[i][1], swapFees[i]);\r\n        }\r\n        require(tempAmount >= amountOutMin, \"#1\");\r\n        //IERC20(token).transfer(pairs[0], amountIn);\r\n        safeTransfer(token, pairs[0], amountIn);\r\n        uint balanceBefore = IERC20(token).balanceOf(address(this));\r\n        for (uint i; i < tokens.length - 1; i++) {\r\n            //(address input, address output) = (tokens[i], tokens[i + 1]);\r\n            (address token0,) = sortTokens(tokens[i], tokens[i + 1]);\r\n            IPair pair = IPair(pairs[i]);\r\n            uint amountInput = IERC20(tokens[i]).balanceOf(address(pair)).sub(reserves[i][0]);\r\n            uint amountOutput = getAmountOut(amountInput, reserves[i][0], reserves[i][1], swapFees[i]);\r\n            (uint amount0Out, uint amount1Out) = tokens[i] == token0 ? (uint(0), amountOutput) : (amountOutput, uint(0));\r\n            address to = i < tokens.length - 2 ? pairs[i + 1] : address(this);\r\n            pair.swap(amount0Out, amount1Out, to, new bytes(0));\r\n        }\r\n        //保证盈利\r\n        require(\r\n            IERC20(token).balanceOf(address(this)).sub(balanceBefore) >= amountOutMin,\r\n            'INSUFFICIENT_OUTPUT_AMOUNT'\r\n        );\r\n    }\r\n\r\n    //获取token路径\r\n    function getTokensAndReserves(address token, address[] memory pairs) internal view returns (address[] memory tokens, uint[][] memory reserves) {\r\n        tokens = new address[](pairs.length + 1);\r\n        reserves = new uint[][](pairs.length);\r\n        tokens[0] = token;\r\n        for (uint i; i < pairs.length; i++) {\r\n            IPair pair = IPair(pairs[i]);\r\n            address token0 = pair.token0();\r\n            address token1 = pair.token1();\r\n            //tokens[i] = tokenIn\r\n            //当token0 = tokenIn 时候 tokenOut = token1,reserve0=tokenIn,reserve1 = tokenOut\r\n            (uint reserve0, uint reserve1,) = pair.getReserves();\r\n            reserves[i] = new uint[](2);\r\n            (tokens[i + 1], reserves[i][0], reserves[i][1]) = token0 == tokens[i] ? (token1, reserve0, reserve1) : (token0, reserve1, reserve0);\r\n        }\r\n    }\r\n\r\n    function sortTokens(address tokenA, address tokenB) internal pure returns (address token0, address token1) {\r\n        (token0, token1) = tokenA < tokenB ? (tokenA, tokenB) : (tokenB, tokenA);\r\n        require(token0 != address(0), 'ZERO_ADDRESS');\r\n    }\r\n\r\n    //计算能买多少资产(根据reserve)\r\n    function getAmountOut(uint amountIn, uint reserveIn, uint reserveOut, uint swapFee) internal pure returns (uint amountOut) {\r\n        require(amountIn > 0, 'INSUFFICIENT_INPUT_AMOUNT');\r\n        require(reserveIn > 0 && reserveOut > 0, 'INSUFFICIENT_LIQUIDITY');\r\n        uint amountInWithFee = amountIn.mul(10000 - swapFee);\r\n        uint numerator = amountInWithFee.mul(reserveOut);\r\n        uint denominator = reserveIn.mul(10000).add(amountInWithFee);\r\n        amountOut = numerator / denominator;\r\n    }\r\n\r\n    function safeTransfer(address token, address to, uint value) internal {\r\n        // bytes4(keccak256(bytes('transfer(address,uint256)')));\r\n        (bool success, bytes memory data) = token.call(abi.encodeWithSelector(0xa9059cbb, to, value));\r\n        require(success && (data.length == 0 || abi.decode(data, (bool))), 'TRANSFER_FAILED');\r\n    }\r\n\r\n}\r\n",
  "sourcePath": "D:\\WebCodes\\royal-mint\\sol\\contracts\\RoyalMint.sol",
  "compiler": {
    "name": "solc",
    "version": "0.7.6+commit.7338295f.Emscripten.clang"
  },
  "schemaVersion": "3.4.7",
  "updatedAt": "2022-05-22T01:17:56.451Z",
  "networkType": "ethereum",
  "devdoc": {
    "kind": "dev",
    "methods": {},
    "version": 1
  },
  "userdoc": {
    "kind": "user",
    "methods": {},
    "version": 1
  }
}