{
  "contractName": "Eagle",
  "abi": [
    {
      "inputs": [],
      "stateMutability": "nonpayable",
      "type": "constructor"
    },
    {
      "inputs": [
        {
          "internalType": "address",
          "name": "",
          "type": "address"
        }
      ],
      "name": "operators",
      "outputs": [
        {
          "internalType": "uint256",
          "name": "",
          "type": "uint256"
        }
      ],
      "stateMutability": "view",
      "type": "function",
      "constant": true
    },
    {
      "inputs": [],
      "name": "owner",
      "outputs": [
        {
          "internalType": "address",
          "name": "",
          "type": "address"
        }
      ],
      "stateMutability": "view",
      "type": "function",
      "constant": true
    },
    {
      "stateMutability": "payable",
      "type": "receive",
      "payable": true
    },
    {
      "inputs": [
        {
          "internalType": "address",
          "name": "token",
          "type": "address"
        },
        {
          "internalType": "uint256",
          "name": "amount",
          "type": "uint256"
        }
      ],
      "name": "withdraw",
      "outputs": [],
      "stateMutability": "nonpayable",
      "type": "function"
    },
    {
      "inputs": [
        {
          "internalType": "address",
          "name": "_newOwner",
          "type": "address"
        }
      ],
      "name": "updateOwner",
      "outputs": [],
      "stateMutability": "nonpayable",
      "type": "function"
    },
    {
      "inputs": [],
      "name": "confirmOwner",
      "outputs": [],
      "stateMutability": "nonpayable",
      "type": "function"
    },
    {
      "inputs": [
        {
          "internalType": "address[]",
          "name": "_operators",
          "type": "address[]"
        }
      ],
      "name": "addOperators",
      "outputs": [],
      "stateMutability": "nonpayable",
      "type": "function"
    },
    {
      "inputs": [
        {
          "internalType": "address[]",
          "name": "_operators",
          "type": "address[]"
        }
      ],
      "name": "removeOperators",
      "outputs": [],
      "stateMutability": "nonpayable",
      "type": "function"
    },
    {
      "inputs": [
        {
          "internalType": "uint256",
          "name": "amountIn",
          "type": "uint256"
        },
        {
          "internalType": "uint256",
          "name": "amountOutMin",
          "type": "uint256"
        },
        {
          "internalType": "address",
          "name": "token",
          "type": "address"
        },
        {
          "internalType": "uint256[]",
          "name": "swapFees",
          "type": "uint256[]"
        },
        {
          "internalType": "address[]",
          "name": "pairs",
          "type": "address[]"
        }
      ],
      "name": "huntingV1",
      "outputs": [],
      "stateMutability": "nonpayable",
      "type": "function"
    },
    {
      "inputs": [
        {
          "internalType": "uint256",
          "name": "amountIn",
          "type": "uint256"
        },
        {
          "internalType": "uint256",
          "name": "amountOutMin",
          "type": "uint256"
        },
        {
          "internalType": "address",
          "name": "token",
          "type": "address"
        },
        {
          "internalType": "uint256[]",
          "name": "swapFees",
          "type": "uint256[]"
        },
        {
          "internalType": "address[]",
          "name": "pairs",
          "type": "address[]"
        }
      ],
      "name": "huntingV2",
      "outputs": [],
      "stateMutability": "nonpayable",
      "type": "function"
    }
  ],
  "bytecode": "0x608060405233600160006101000a81548173ffffffffffffffffffffffffffffffffffffffff021916908373ffffffffffffffffffffffffffffffffffffffff16021790555034801561005157600080fd5b5060016000803373ffffffffffffffffffffffffffffffffffffffff1673ffffffffffffffffffffffffffffffffffffffff16815260200190815260200160002081905550612c93806100a56000396000f3fe60806040526004361061008a5760003560e01c80638da5cb5b116100595780638da5cb5b14610466578063a07aea1c146104a7578063bd9b6d861461056c578063d365a37714610583578063f3fef3a31461064857610091565b806313e7c9d81461009657806330665253146100fb57806362d9279414610288578063880cdc311461041557610091565b3661009157005b600080fd5b3480156100a257600080fd5b506100e5600480360360208110156100b957600080fd5b81019080803573ffffffffffffffffffffffffffffffffffffffff1690602001909291905050506106a3565b6040518082815260200191505060405180910390f35b34801561010757600080fd5b50610286600480360360a081101561011e57600080fd5b810190808035906020019092919080359060200190929190803573ffffffffffffffffffffffffffffffffffffffff1690602001909291908035906020019064010000000081111561016f57600080fd5b82018360208201111561018157600080fd5b803590602001918460208302840111640100000000831117156101a357600080fd5b919080806020026020016040519081016040528093929190818152602001838360200280828437600081840152601f19601f8201169050808301925050505050505091929192908035906020019064010000000081111561020357600080fd5b82018360208201111561021557600080fd5b8035906020019184602083028401116401000000008311171561023757600080fd5b919080806020026020016040519081016040528093929190818152602001838360200280828437600081840152601f19601f8201169050808301925050505050505091929192905050506106bb565b005b34801561029457600080fd5b50610413600480360360a08110156102ab57600080fd5b810190808035906020019092919080359060200190929190803573ffffffffffffffffffffffffffffffffffffffff169060200190929190803590602001906401000000008111156102fc57600080fd5b82018360208201111561030e57600080fd5b8035906020019184602083028401116401000000008311171561033057600080fd5b919080806020026020016040519081016040528093929190818152602001838360200280828437600081840152601f19601f8201169050808301925050505050505091929192908035906020019064010000000081111561039057600080fd5b8201836020820111156103a257600080fd5b803590602001918460208302840111640100000000831117156103c457600080fd5b919080806020026020016040519081016040528093929190818152602001838360200280828437600081840152601f19601f82011690508083019250505050505050919291929050505061124f565b005b34801561042157600080fd5b506104646004803603602081101561043857600080fd5b81019080803573ffffffffffffffffffffffffffffffffffffffff169060200190929190505050611a69565b005b34801561047257600080fd5b5061047b611b70565b604051808273ffffffffffffffffffffffffffffffffffffffff16815260200191505060405180910390f35b3480156104b357600080fd5b5061056a600480360360208110156104ca57600080fd5b81019080803590602001906401000000008111156104e757600080fd5b8201836020820111156104f957600080fd5b8035906020019184602083028401116401000000008311171561051b57600080fd5b919080806020026020016040519081016040528093929190818152602001838360200280828437600081840152601f19601f820116905080830192505050505050509192919290505050611b96565b005b34801561057857600080fd5b50610581611ccd565b005b34801561058f57600080fd5b50610646600480360360208110156105a657600080fd5b81019080803590602001906401000000008111156105c357600080fd5b8201836020820111156105d557600080fd5b803590602001918460208302840111640100000000831117156105f757600080fd5b919080806020026020016040519081016040528093929190818152602001838360200280828437600081840152601f19601f820116905080830192505050505050509192919290505050611e5b565b005b34801561065457600080fd5b506106a16004803603604081101561066b57600080fd5b81019080803573ffffffffffffffffffffffffffffffffffffffff16906020019092919080359060200190929190505050612001565b005b60006020528060005260406000206000915090505481565b60005a905060008060003373ffffffffffffffffffffffffffffffffffffffff1673ffffffffffffffffffffffffffffffffffffffff168152602001908152602001600020541415610775576040517f08c379a00000000000000000000000000000000000000000000000000000000081526004018080602001828103825260188152602001807f4f70657261746f72206e6f7420617574686f72697a65642e000000000000000081525060200191505060405180910390fd5b6000849050600087905060005b8451811015610a1a57600085828151811061079957fe5b6020026020010151905060008173ffffffffffffffffffffffffffffffffffffffff16630dfe16816040518163ffffffff1660e01b815260040160206040518083038186803b1580156107eb57600080fd5b505afa1580156107ff573d6000803e3d6000fd5b505050506040513d602081101561081557600080fd5b810190808051906020019092919050505090506000808373ffffffffffffffffffffffffffffffffffffffff16630902f1ac6040518163ffffffff1660e01b815260040160606040518083038186803b15801561087157600080fd5b505afa158015610885573d6000803e3d6000fd5b505050506040513d606081101561089b57600080fd5b81019080805190602001909291908051906020019092919080519060200190929190505050506dffffffffffffffffffffffffffff1691506dffffffffffffffffffffffffffff1691506000808873ffffffffffffffffffffffffffffffffffffffff168573ffffffffffffffffffffffffffffffffffffffff1614610922578284610925565b83835b915091508873ffffffffffffffffffffffffffffffffffffffff168573ffffffffffffffffffffffffffffffffffffffff161461096257846109e4565b8573ffffffffffffffffffffffffffffffffffffffff1663d21220a76040518163ffffffff1660e01b815260040160206040518083038186803b1580156109a857600080fd5b505afa1580156109bc573d6000803e3d6000fd5b505050506040513d60208110156109d257600080fd5b81019080805190602001909291905050505b9850610a058883838f8b815181106109f857fe5b6020026020010151612245565b97505050505050508080600101915050610782565b5086811015610a91576040517f08c379a00000000000000000000000000000000000000000000000000000000081526004018080602001828103825260028152602001807f233100000000000000000000000000000000000000000000000000000000000081525060200191505060405180910390fd5b50610ab18584600081518110610aa357fe5b6020026020010151896123b2565b60008573ffffffffffffffffffffffffffffffffffffffff166370a08231306040518263ffffffff1660e01b8152600401808273ffffffffffffffffffffffffffffffffffffffff16815260200191505060206040518083038186803b158015610b1a57600080fd5b505afa158015610b2e573d6000803e3d6000fd5b505050506040513d6020811015610b4457600080fd5b8101908080519060200190929190505050905085915060005b8451811015611073576000858281518110610b7457fe5b6020026020010151905060008173ffffffffffffffffffffffffffffffffffffffff16630dfe16816040518163ffffffff1660e01b815260040160206040518083038186803b158015610bc657600080fd5b505afa158015610bda573d6000803e3d6000fd5b505050506040513d6020811015610bf057600080fd5b810190808051906020019092919050505090506000806000808573ffffffffffffffffffffffffffffffffffffffff16630902f1ac6040518163ffffffff1660e01b815260040160606040518083038186803b158015610c4f57600080fd5b505afa158015610c63573d6000803e3d6000fd5b505050506040513d6060811015610c7957600080fd5b81019080805190602001909291908051906020019092919080519060200190929190505050506dffffffffffffffffffffffffffff1691506dffffffffffffffffffffffffffff1691508873ffffffffffffffffffffffffffffffffffffffff168573ffffffffffffffffffffffffffffffffffffffff1614610cfd578082610d00565b81815b80945081955050505050600080610dc1848a73ffffffffffffffffffffffffffffffffffffffff166370a08231896040518263ffffffff1660e01b8152600401808273ffffffffffffffffffffffffffffffffffffffff16815260200191505060206040518083038186803b158015610d7857600080fd5b505afa158015610d8c573d6000803e3d6000fd5b505050506040513d6020811015610da257600080fd5b810190808051906020019092919050505061259490919063ffffffff16565b9050610de28185858f8b81518110610dd557fe5b6020026020010151612245565b9150506000808973ffffffffffffffffffffffffffffffffffffffff168673ffffffffffffffffffffffffffffffffffffffff1614610e2357826000610e27565b6000835b91509150600060018d51038910610e3e5730610e56565b8c60018a0181518110610e4d57fe5b60200260200101515b90508773ffffffffffffffffffffffffffffffffffffffff1663022c0d9f848484600067ffffffffffffffff81118015610e8f57600080fd5b506040519080825280601f01601f191660200182016040528015610ec25781602001600182028036833780820191505090505b506040518563ffffffff1660e01b8152600401808581526020018481526020018373ffffffffffffffffffffffffffffffffffffffff16815260200180602001828103825283818151815260200191508051906020019080838360005b83811015610f3a578082015181840152602081019050610f1f565b50505050905090810190601f168015610f675780820380516001836020036101000a031916815260200191505b5095505050505050600060405180830381600087803b158015610f8957600080fd5b505af1158015610f9d573d6000803e3d6000fd5b505050508a73ffffffffffffffffffffffffffffffffffffffff168773ffffffffffffffffffffffffffffffffffffffff1614610fda578661105c565b8773ffffffffffffffffffffffffffffffffffffffff1663d21220a76040518163ffffffff1660e01b815260040160206040518083038186803b15801561102057600080fd5b505afa158015611034573d6000803e3d6000fd5b505050506040513d602081101561104a57600080fd5b81019080805190602001909291905050505b9a5050505050505050508080600101915050610b5d565b5086611129828873ffffffffffffffffffffffffffffffffffffffff166370a08231306040518263ffffffff1660e01b8152600401808273ffffffffffffffffffffffffffffffffffffffff16815260200191505060206040518083038186803b1580156110e057600080fd5b505afa1580156110f4573d6000803e3d6000fd5b505050506040513d602081101561110a57600080fd5b810190808051906020019092919050505061259490919063ffffffff16565b101561119d576040517f08c379a00000000000000000000000000000000000000000000000000000000081526004018080602001828103825260028152602001807f233200000000000000000000000000000000000000000000000000000000000081525060200191505060405180910390fd5b505060008036905060100261520801905060005a838301039050600061a3db61374a8301816111c857fe5b0490506d4946c0e9f43f4dee607b0ef1fa1c73ffffffffffffffffffffffffffffffffffffffff1663d8ccd0f3826040518263ffffffff1660e01b815260040180828152602001915050600060405180830381600087803b15801561122c57600080fd5b505af1158015611240573d6000803e3d6000fd5b50505050505050505050505050565b60005a905060008060003373ffffffffffffffffffffffffffffffffffffffff1673ffffffffffffffffffffffffffffffffffffffff168152602001908152602001600020541415611309576040517f08c379a00000000000000000000000000000000000000000000000000000000081526004018080602001828103825260188152602001807f4f70657261746f72206e6f7420617574686f72697a65642e000000000000000081525060200191505060405180910390fd5b6000806113168685612617565b91509150600088905060005b60018451038110156113aa5761139b8284838151811061133e57fe5b602002602001015160008151811061135257fe5b602002602001015185848151811061136657fe5b602002602001015160018151811061137a57fe5b60200260200101518a858151811061138e57fe5b6020026020010151612245565b91508080600101915050611322565b5087811015611421576040517f08c379a00000000000000000000000000000000000000000000000000000000081526004018080602001828103825260028152602001807f233100000000000000000000000000000000000000000000000000000000000081525060200191505060405180910390fd5b611440878660008151811061143257fe5b60200260200101518b6123b2565b60008773ffffffffffffffffffffffffffffffffffffffff166370a08231306040518263ffffffff1660e01b8152600401808273ffffffffffffffffffffffffffffffffffffffff16815260200191505060206040518083038186803b1580156114a957600080fd5b505afa1580156114bd573d6000803e3d6000fd5b505050506040513d60208110156114d357600080fd5b8101908080519060200190929190505050905060005b600185510381101561188b57600061152a86838151811061150657fe5b602002602001015187600185018151811061151d57fe5b6020026020010151612a53565b509050600088838151811061153b57fe5b60200260200101519050600061163587858151811061155657fe5b602002602001015160008151811061156a57fe5b602002602001015189868151811061157e57fe5b602002602001015173ffffffffffffffffffffffffffffffffffffffff166370a08231856040518263ffffffff1660e01b8152600401808273ffffffffffffffffffffffffffffffffffffffff16815260200191505060206040518083038186803b1580156115ec57600080fd5b505afa158015611600573d6000803e3d6000fd5b505050506040513d602081101561161657600080fd5b810190808051906020019092919050505061259490919063ffffffff16565b905060006116a68289878151811061164957fe5b602002602001015160008151811061165d57fe5b60200260200101518a888151811061167157fe5b602002602001015160018151811061168557fe5b60200260200101518f898151811061169957fe5b6020026020010151612245565b90506000808573ffffffffffffffffffffffffffffffffffffffff168b88815181106116ce57fe5b602002602001015173ffffffffffffffffffffffffffffffffffffffff16146116f9578260006116fd565b6000835b91509150600060028c51038810611714573061172c565b8d600189018151811061172357fe5b60200260200101515b90508573ffffffffffffffffffffffffffffffffffffffff1663022c0d9f848484600067ffffffffffffffff8111801561176557600080fd5b506040519080825280601f01601f1916602001820160405280156117985781602001600182028036833780820191505090505b506040518563ffffffff1660e01b8152600401808581526020018481526020018373ffffffffffffffffffffffffffffffffffffffff16815260200180602001828103825283818151815260200191508051906020019080838360005b838110156118105780820151818401526020810190506117f5565b50505050905090810190601f16801561183d5780820380516001836020036101000a031916815260200191505b5095505050505050600060405180830381600087803b15801561185f57600080fd5b505af1158015611873573d6000803e3d6000fd5b505050505050505050505080806001019150506114e9565b5088611941828a73ffffffffffffffffffffffffffffffffffffffff166370a08231306040518263ffffffff1660e01b8152600401808273ffffffffffffffffffffffffffffffffffffffff16815260200191505060206040518083038186803b1580156118f857600080fd5b505afa15801561190c573d6000803e3d6000fd5b505050506040513d602081101561192257600080fd5b810190808051906020019092919050505061259490919063ffffffff16565b10156119b5576040517f08c379a000000000000000000000000000000000000000000000000000000000815260040180806020018281038252601a8152602001807f494e53554646494349454e545f4f55545055545f414d4f554e5400000000000081525060200191505060405180910390fd5b5050505060008036905060100261520801905060005a838301039050600061a3db61374a8301816119e257fe5b0490506d4946c0e9f43f4dee607b0ef1fa1c73ffffffffffffffffffffffffffffffffffffffff1663d8ccd0f3826040518263ffffffff1660e01b815260040180828152602001915050600060405180830381600087803b158015611a4657600080fd5b505af1158015611a5a573d6000803e3d6000fd5b50505050505050505050505050565b600160009054906101000a900473ffffffffffffffffffffffffffffffffffffffff1673ffffffffffffffffffffffffffffffffffffffff163373ffffffffffffffffffffffffffffffffffffffff1614611b2c576040517f08c379a00000000000000000000000000000000000000000000000000000000081526004018080602001828103825260158152602001807f4f776e6572206e6f7420617574686f72697a65642e000000000000000000000081525060200191505060405180910390fd5b80600260006101000a81548173ffffffffffffffffffffffffffffffffffffffff021916908373ffffffffffffffffffffffffffffffffffffffff16021790555050565b600160009054906101000a900473ffffffffffffffffffffffffffffffffffffffff1681565b600160009054906101000a900473ffffffffffffffffffffffffffffffffffffffff1673ffffffffffffffffffffffffffffffffffffffff163373ffffffffffffffffffffffffffffffffffffffff1614611c59576040517f08c379a00000000000000000000000000000000000000000000000000000000081526004018080602001828103825260158152602001807f4f776e6572206e6f7420617574686f72697a65642e000000000000000000000081525060200191505060405180910390fd5b60005b8151811015611cc9576001600080848481518110611c7657fe5b602002602001015173ffffffffffffffffffffffffffffffffffffffff1673ffffffffffffffffffffffffffffffffffffffff168152602001908152602001600020819055508080600101915050611c5c565b5050565b600260009054906101000a900473ffffffffffffffffffffffffffffffffffffffff1673ffffffffffffffffffffffffffffffffffffffff163373ffffffffffffffffffffffffffffffffffffffff1614611d90576040517f08c379a00000000000000000000000000000000000000000000000000000000081526004018080602001828103825260188152602001807f4e65774f776e6572206e6f7420617574686f72697a65642e000000000000000081525060200191505060405180910390fd5b600260009054906101000a900473ffffffffffffffffffffffffffffffffffffffff16600160006101000a81548173ffffffffffffffffffffffffffffffffffffffff021916908373ffffffffffffffffffffffffffffffffffffffff1602179055506001600080600260009054906101000a900473ffffffffffffffffffffffffffffffffffffffff1673ffffffffffffffffffffffffffffffffffffffff1673ffffffffffffffffffffffffffffffffffffffff16815260200190815260200160002081905550565b600160009054906101000a900473ffffffffffffffffffffffffffffffffffffffff1673ffffffffffffffffffffffffffffffffffffffff163373ffffffffffffffffffffffffffffffffffffffff1614611f1e576040517f08c379a00000000000000000000000000000000000000000000000000000000081526004018080602001828103825260158152602001807f4f776e6572206e6f7420617574686f72697a65642e000000000000000000000081525060200191505060405180910390fd5b60005b8151811015611ffd57600160009054906101000a900473ffffffffffffffffffffffffffffffffffffffff1673ffffffffffffffffffffffffffffffffffffffff16828281518110611f6f57fe5b602002602001015173ffffffffffffffffffffffffffffffffffffffff161415611f9857611ff0565b6000806000848481518110611fa957fe5b602002602001015173ffffffffffffffffffffffffffffffffffffffff1673ffffffffffffffffffffffffffffffffffffffff168152602001908152602001600020819055505b8080600101915050611f21565b5050565b600160009054906101000a900473ffffffffffffffffffffffffffffffffffffffff1673ffffffffffffffffffffffffffffffffffffffff163373ffffffffffffffffffffffffffffffffffffffff16146120c4576040517f08c379a00000000000000000000000000000000000000000000000000000000081526004018080602001828103825260158152602001807f4f776e6572206e6f7420617574686f72697a65642e000000000000000000000081525060200191505060405180910390fd5b6000811415612172578173ffffffffffffffffffffffffffffffffffffffff166370a08231306040518263ffffffff1660e01b8152600401808273ffffffffffffffffffffffffffffffffffffffff16815260200191505060206040518083038186803b15801561213457600080fd5b505afa158015612148573d6000803e3d6000fd5b505050506040513d602081101561215e57600080fd5b810190808051906020019092919050505090505b8173ffffffffffffffffffffffffffffffffffffffff1663a9059cbb600160009054906101000a900473ffffffffffffffffffffffffffffffffffffffff16836040518363ffffffff1660e01b8152600401808373ffffffffffffffffffffffffffffffffffffffff16815260200182815260200192505050602060405180830381600087803b15801561220557600080fd5b505af1158015612219573d6000803e3d6000fd5b505050506040513d602081101561222f57600080fd5b8101908080519060200190929190505050505050565b60008085116122bc576040517f08c379a00000000000000000000000000000000000000000000000000000000081526004018080602001828103825260198152602001807f494e53554646494349454e545f494e5055545f414d4f554e540000000000000081525060200191505060405180910390fd5b6000841180156122cc5750600083115b61233e576040517f08c379a00000000000000000000000000000000000000000000000000000000081526004018080602001828103825260168152602001807f494e53554646494349454e545f4c49515549444954590000000000000000000081525060200191505060405180910390fd5b6000612357836127100387612b4590919063ffffffff16565b9050600061236e8583612b4590919063ffffffff16565b905060006123998361238b6127108a612b4590919063ffffffff16565b612bda90919063ffffffff16565b90508082816123a457fe5b049350505050949350505050565b6000808473ffffffffffffffffffffffffffffffffffffffff1663a9059cbb8585604051602401808373ffffffffffffffffffffffffffffffffffffffff168152602001828152602001925050506040516020818303038152906040529060e01b6020820180517bffffffffffffffffffffffffffffffffffffffffffffffffffffffff83818316178352505050506040518082805190602001908083835b602083106124745780518252602082019150602081019050602083039250612451565b6001836020036101000a0380198251168184511680821785525050505050509050019150506000604051808303816000865af19150503d80600081146124d6576040519150601f19603f3d011682016040523d82523d6000602084013e6124db565b606091505b509150915081801561251b575060008151148061251a575080806020019051602081101561250857600080fd5b81019080805190602001909291905050505b5b61258d576040517f08c379a000000000000000000000000000000000000000000000000000000000815260040180806020018281038252600f8152602001807f5452414e534645525f4641494c4544000000000000000000000000000000000081525060200191505060405180910390fd5b5050505050565b6000828284039150811115612611576040517f08c379a00000000000000000000000000000000000000000000000000000000081526004018080602001828103825260158152602001807f64732d6d6174682d7375622d756e646572666c6f77000000000000000000000081525060200191505060405180910390fd5b92915050565b606080600183510167ffffffffffffffff8111801561263557600080fd5b506040519080825280602002602001820160405280156126645781602001602082028036833780820191505090505b509150825167ffffffffffffffff8111801561267f57600080fd5b506040519080825280602002602001820160405280156126b357816020015b606081526020019060019003908161269e5790505b50905083826000815181106126c457fe5b602002602001019073ffffffffffffffffffffffffffffffffffffffff16908173ffffffffffffffffffffffffffffffffffffffff168152505060005b8351811015612a4b57600084828151811061271857fe5b6020026020010151905060008173ffffffffffffffffffffffffffffffffffffffff16630dfe16816040518163ffffffff1660e01b815260040160206040518083038186803b15801561276a57600080fd5b505afa15801561277e573d6000803e3d6000fd5b505050506040513d602081101561279457600080fd5b8101908080519060200190929190505050905060008273ffffffffffffffffffffffffffffffffffffffff1663d21220a76040518163ffffffff1660e01b815260040160206040518083038186803b1580156127ef57600080fd5b505afa158015612803573d6000803e3d6000fd5b505050506040513d602081101561281957600080fd5b810190808051906020019092919050505090506000808473ffffffffffffffffffffffffffffffffffffffff16630902f1ac6040518163ffffffff1660e01b815260040160606040518083038186803b15801561287557600080fd5b505afa158015612889573d6000803e3d6000fd5b505050506040513d606081101561289f57600080fd5b81019080805190602001909291908051906020019092919080519060200190929190505050506dffffffffffffffffffffffffffff1691506dffffffffffffffffffffffffffff169150600267ffffffffffffffff8111801561290157600080fd5b506040519080825280602002602001820160405280156129305781602001602082028036833780820191505090505b5087878151811061293d57fe5b602002602001018190525087868151811061295457fe5b602002602001015173ffffffffffffffffffffffffffffffffffffffff168473ffffffffffffffffffffffffffffffffffffffff16146129965783818361299a565b8282825b8a60018a01815181106129a957fe5b602002602001018a8a815181106129bc57fe5b60200260200101516000815181106129d057fe5b602002602001018b8b815181106129e357fe5b60200260200101516001815181106129f757fe5b6020026020010183815250838152508373ffffffffffffffffffffffffffffffffffffffff1673ffffffffffffffffffffffffffffffffffffffff1681525050505050505050508080600101915050612701565b509250929050565b6000808273ffffffffffffffffffffffffffffffffffffffff168473ffffffffffffffffffffffffffffffffffffffff1610612a90578284612a93565b83835b8092508193505050600073ffffffffffffffffffffffffffffffffffffffff168273ffffffffffffffffffffffffffffffffffffffff161415612b3e576040517f08c379a000000000000000000000000000000000000000000000000000000000815260040180806020018281038252600c8152602001807f5a45524f5f41444452455353000000000000000000000000000000000000000081525060200191505060405180910390fd5b9250929050565b600080821480612b625750828283850292508281612b5f57fe5b04145b612bd4576040517f08c379a00000000000000000000000000000000000000000000000000000000081526004018080602001828103825260148152602001807f64732d6d6174682d6d756c2d6f766572666c6f7700000000000000000000000081525060200191505060405180910390fd5b92915050565b6000828284019150811015612c57576040517f08c379a00000000000000000000000000000000000000000000000000000000081526004018080602001828103825260148152602001807f64732d6d6174682d6164642d6f766572666c6f7700000000000000000000000081525060200191505060405180910390fd5b9291505056fea26469706673582212205ef902a8beb78e0c19bdacf926a2cc1e55629f4ee1995fe9a13d3b21df90d5f664736f6c63430007060033",
  "immutableReferences": {},
  "source": "//SPDX-License-Identifier: UNLICENSED\r\npragma solidity >=0.6.6;\r\n\r\nimport \"./interfaces/IPair.sol\";\r\nimport \"./interfaces/IERC20.sol\";\r\nimport \"./interfaces/CHI.sol\";\r\nimport \"./libraries/SafeMath.sol\";\r\n\r\ncontract Eagle {\r\n\r\n    using SafeMath for uint;\r\n\r\n    //\r\n    mapping(address => uint) public operators;\r\n\r\n    //\r\n    address public owner = msg.sender;\r\n\r\n    //\r\n    address private newOwner;\r\n\r\n    bytes constant private zeroBytes = new bytes(0);\r\n\r\n    CHI constant private chi = CHI(0x0000000000004946c0e9F43F4Dee607b0eF1fA1c);\r\n\r\n    constructor() {\r\n        operators[msg.sender] = 1;\r\n    }\r\n\r\n    //onlyBy\r\n    modifier onlyByOwner() {\r\n        require(\r\n            msg.sender == owner,\r\n            \"Owner not authorized.\"\r\n        );\r\n        _;\r\n    }\r\n\r\n    modifier onlyByNewOwner() {\r\n        require(\r\n            msg.sender == newOwner,\r\n            \"NewOwner not authorized.\"\r\n        );\r\n        _;\r\n    }\r\n\r\n    modifier onlyByOperator() {\r\n        require(\r\n            operators[msg.sender] != 0,\r\n            \"Operator not authorized.\"\r\n        );\r\n        _;\r\n    }\r\n\r\n    modifier onlyByOperatorAndDiscountGas {\r\n        uint gasStart = gasleft();\r\n        require(\r\n            operators[msg.sender] != 0,\r\n            \"Operator not authorized.\"\r\n        );\r\n        _;\r\n        uint initialGas = 21000 + 16 * msg.data.length;\r\n        uint gasSpent = initialGas + gasStart - gasleft();\r\n        uint freeUpValue = (gasSpent + 14154) / 41947;\r\n        chi.free(freeUpValue);\r\n    }\r\n\r\n    //\r\n    receive() external payable {}\r\n\r\n    //(owner)\r\n    function withdraw(address token, uint amount) public onlyByOwner() {\r\n        if (amount == 0) {\r\n            amount = IERC20(token).balanceOf(address(this));\r\n        }\r\n        IERC20(token).transfer(address(owner), amount);\r\n    }\r\n\r\n    //OwnerOwner\r\n    function updateOwner(address _newOwner) public onlyByOwner() {\r\n        newOwner = _newOwner;\r\n    }\r\n\r\n    //OwnerOwner  \r\n    function confirmOwner() public onlyByNewOwner() {\r\n        owner = newOwner;\r\n        operators[newOwner] = 1;\r\n    }\r\n\r\n    //\r\n    function addOperators(address[] memory _operators) public onlyByOwner() {\r\n        for (uint i = 0; i < _operators.length; i++) {\r\n            operators[_operators[i]] = 1;\r\n        }\r\n    }\r\n\r\n    //\r\n    function removeOperators(address[] memory _operators) public onlyByOwner() {\r\n        for (uint i = 0; i < _operators.length; i++) {\r\n            //owner\r\n            if (_operators[i] == owner) {\r\n                continue;\r\n            }\r\n            operators[_operators[i]] = 0;\r\n        }\r\n    }\r\n\r\n    function huntingV1(uint amountIn, uint amountOutMin, address token, uint[] memory swapFees, address[] memory pairs) external onlyByOperatorAndDiscountGas {\r\n        //\r\n        (address[] memory tokens, uint[][] memory reserves) = getTokensAndReserves(token, pairs);\r\n        //reserves\r\n        uint tempAmount = amountIn;\r\n        for (uint i; i < tokens.length - 1; i++) {\r\n            tempAmount = getAmountOut(tempAmount, reserves[i][0], reserves[i][1], swapFees[i]);\r\n        }\r\n        require(tempAmount >= amountOutMin, \"#1\");\r\n        //IERC20(token).transfer(pairs[0], amountIn);\r\n        safeTransfer(token, pairs[0], amountIn);\r\n        uint balanceBefore = IERC20(token).balanceOf(address(this));\r\n        for (uint i; i < tokens.length - 1; i++) {\r\n            //(address input, address output) = (tokens[i], tokens[i + 1]);\r\n            (address token0,) = sortTokens(tokens[i], tokens[i + 1]);\r\n            IPair pair = IPair(pairs[i]);\r\n            uint amountInput = IERC20(tokens[i]).balanceOf(address(pair)).sub(reserves[i][0]);\r\n            uint amountOutput = getAmountOut(amountInput, reserves[i][0], reserves[i][1], swapFees[i]);\r\n            (uint amount0Out, uint amount1Out) = tokens[i] == token0 ? (uint(0), amountOutput) : (amountOutput, uint(0));\r\n            address to = i < tokens.length - 2 ? pairs[i + 1] : address(this);\r\n            pair.swap(amount0Out, amount1Out, to, zeroBytes);\r\n        }\r\n        //\r\n        require(\r\n            IERC20(token).balanceOf(address(this)).sub(balanceBefore) >= amountOutMin,\r\n            'INSUFFICIENT_OUTPUT_AMOUNT'\r\n        );\r\n    }\r\n\r\n    //pathreserve\r\n    function huntingV2(uint amountIn, uint amountOutMin, address token, uint[] memory swapFees, address[] memory pairs) external onlyByOperatorAndDiscountGas {\r\n        //\r\n        //reserves\r\n        address tempTokenIn = token;\r\n        // stack too deep\r\n        {\r\n            uint tempAmount = amountIn;\r\n            for (uint i; i < pairs.length; i++) {\r\n                IPair pair = IPair(pairs[i]);\r\n                address token0 = pair.token0();\r\n                (uint reserve0, uint reserve1,) = pair.getReserves();\r\n                (uint reserveIn, uint reserveOut) = token0 == tempTokenIn ? (reserve0, reserve1) : (reserve1, reserve0);\r\n                //\r\n                tempTokenIn = token0 == tempTokenIn ? pair.token1() : token0;\r\n                tempAmount = getAmountOut(tempAmount, reserveIn, reserveOut, swapFees[i]);\r\n            }\r\n            require(tempAmount >= amountOutMin, \"#1\");\r\n        }\r\n        //IERC20(token).transfer(pairs[0], amountIn);\r\n        safeTransfer(token, pairs[0], amountIn);\r\n        uint balanceBefore = IERC20(token).balanceOf(address(this));\r\n        //tempTokenIn\r\n        tempTokenIn = token;\r\n        for (uint i; i < pairs.length; i++) {\r\n            IPair pair = IPair(pairs[i]);\r\n            address token0 = pair.token0();\r\n            uint reserveIn;\r\n            uint reserveOut;\r\n            {\r\n                (uint reserve0, uint reserve1,) = pair.getReserves();\r\n                (reserveIn, reserveOut) = token0 == tempTokenIn ? (reserve0, reserve1) : (reserve1, reserve0);\r\n            }\r\n            uint amountOutput;\r\n            {\r\n                uint amountInput = IERC20(tempTokenIn).balanceOf(address(pair)).sub(reserveIn);\r\n                amountOutput = getAmountOut(amountInput, reserveIn, reserveOut, swapFees[i]);\r\n            }\r\n            (uint amount0Out, uint amount1Out) = token0 == tempTokenIn ? (uint(0), amountOutput) : (amountOutput, uint(0));\r\n            address to = i < pairs.length - 1 ? pairs[i + 1] : address(this);\r\n            pair.swap(amount0Out, amount1Out, to, zeroBytes);\r\n            //tempTokenIn \r\n            tempTokenIn = token0 == tempTokenIn ? pair.token1() : token0;\r\n        }\r\n        //\r\n        //'INSUFFICIENT_OUTPUT_AMOUNT'\r\n        require(\r\n            IERC20(token).balanceOf(address(this)).sub(balanceBefore) >= amountOutMin,\r\n            '#2'\r\n        );\r\n    }\r\n\r\n    //token\r\n    function getTokensAndReserves(address token, address[] memory pairs) internal view returns (address[] memory tokens, uint[][] memory reserves) {\r\n        tokens = new address[](pairs.length + 1);\r\n        reserves = new uint[][](pairs.length);\r\n        tokens[0] = token;\r\n        for (uint i; i < pairs.length; i++) {\r\n            IPair pair = IPair(pairs[i]);\r\n            address token0 = pair.token0();\r\n            address token1 = pair.token1();\r\n            //tokens[i] = tokenIn\r\n            //token0 = tokenIn  tokenOut = token1,reserve0=tokenIn,reserve1 = tokenOut\r\n            (uint reserve0, uint reserve1,) = pair.getReserves();\r\n            reserves[i] = new uint[](2);\r\n            (tokens[i + 1], reserves[i][0], reserves[i][1]) = token0 == tokens[i] ? (token1, reserve0, reserve1) : (token0, reserve1, reserve0);\r\n        }\r\n    }\r\n\r\n    function sortTokens(address tokenA, address tokenB) internal pure returns (address token0, address token1) {\r\n        (token0, token1) = tokenA < tokenB ? (tokenA, tokenB) : (tokenB, tokenA);\r\n        require(token0 != address(0), 'ZERO_ADDRESS');\r\n    }\r\n\r\n    //(reserve)\r\n    function getAmountOut(uint amountIn, uint reserveIn, uint reserveOut, uint swapFee) internal pure returns (uint amountOut) {\r\n        require(amountIn > 0, 'INSUFFICIENT_INPUT_AMOUNT');\r\n        require(reserveIn > 0 && reserveOut > 0, 'INSUFFICIENT_LIQUIDITY');\r\n        uint amountInWithFee = amountIn.mul(10000 - swapFee);\r\n        uint numerator = amountInWithFee.mul(reserveOut);\r\n        uint denominator = reserveIn.mul(10000).add(amountInWithFee);\r\n        amountOut = numerator / denominator;\r\n    }\r\n\r\n    function safeTransfer(address token, address to, uint value) internal {\r\n        // bytes4(keccak256(bytes('transfer(address,uint256)')));\r\n        (bool success, bytes memory data) = token.call(abi.encodeWithSelector(0xa9059cbb, to, value));\r\n        require(success && (data.length == 0 || abi.decode(data, (bool))), 'TRANSFER_FAILED');\r\n    }\r\n\r\n}\r\n",
  "sourcePath": "D:\\WebCodes\\royal-mint\\sol\\contracts\\Eagle.sol",
  "compiler": {
    "name": "solc",
    "version": "0.7.6+commit.7338295f.Emscripten.clang"
  },
  "schemaVersion": "3.4.7",
  "updatedAt": "2022-06-09T03:31:08.470Z",
  "networkType": "ethereum",
  "devdoc": {
    "kind": "dev",
    "methods": {},
    "version": 1
  },
  "userdoc": {
    "kind": "user",
    "methods": {},
    "version": 1
  }
}